{
  "address": "0x2E705a1D8DD418D133D609e4942a2C77625D177a",
  "abi": [
    {
      "inputs": [],
      "stateMutability": "nonpayable",
      "type": "constructor"
    },
    {
      "anonymous": false,
      "inputs": [
        {
          "indexed": true,
          "internalType": "address",
          "name": "from",
          "type": "address"
        },
        {
          "indexed": true,
          "internalType": "address",
          "name": "to",
          "type": "address"
        },
        {
          "indexed": true,
          "internalType": "uint256",
          "name": "tokenId",
          "type": "uint256"
        }
      ],
      "name": "Transfer",
      "type": "event"
    },
    {
      "inputs": [
        {
          "internalType": "address",
          "name": "",
          "type": "address"
        },
        {
          "internalType": "uint256",
          "name": "",
          "type": "uint256"
        }
      ],
      "name": "approve",
      "outputs": [],
      "stateMutability": "pure",
      "type": "function"
    },
    {
      "inputs": [],
      "name": "authorizedMinter",
      "outputs": [
        {
          "internalType": "address",
          "name": "",
          "type": "address"
        }
      ],
      "stateMutability": "view",
      "type": "function"
    },
    {
      "inputs": [
        {
          "internalType": "address",
          "name": "account",
          "type": "address"
        }
      ],
      "name": "balanceOf",
      "outputs": [
        {
          "internalType": "uint256",
          "name": "",
          "type": "uint256"
        }
      ],
      "stateMutability": "view",
      "type": "function"
    },
    {
      "inputs": [
        {
          "internalType": "uint256",
          "name": "",
          "type": "uint256"
        }
      ],
      "name": "getApproved",
      "outputs": [
        {
          "internalType": "address",
          "name": "",
          "type": "address"
        }
      ],
      "stateMutability": "pure",
      "type": "function"
    },
    {
      "inputs": [
        {
          "internalType": "address",
          "name": "",
          "type": "address"
        },
        {
          "internalType": "address",
          "name": "",
          "type": "address"
        }
      ],
      "name": "isApprovedForAll",
      "outputs": [
        {
          "internalType": "bool",
          "name": "",
          "type": "bool"
        }
      ],
      "stateMutability": "pure",
      "type": "function"
    },
    {
      "inputs": [
        {
          "internalType": "address",
          "name": "to",
          "type": "address"
        }
      ],
      "name": "mint",
      "outputs": [
        {
          "internalType": "uint256",
          "name": "tokenId",
          "type": "uint256"
        }
      ],
      "stateMutability": "nonpayable",
      "type": "function"
    },
    {
      "inputs": [],
      "name": "name",
      "outputs": [
        {
          "internalType": "string",
          "name": "",
          "type": "string"
        }
      ],
      "stateMutability": "view",
      "type": "function"
    },
    {
      "inputs": [],
      "name": "owner",
      "outputs": [
        {
          "internalType": "address",
          "name": "",
          "type": "address"
        }
      ],
      "stateMutability": "view",
      "type": "function"
    },
    {
      "inputs": [
        {
          "internalType": "uint256",
          "name": "tokenId",
          "type": "uint256"
        }
      ],
      "name": "ownerOf",
      "outputs": [
        {
          "internalType": "address",
          "name": "",
          "type": "address"
        }
      ],
      "stateMutability": "view",
      "type": "function"
    },
    {
      "inputs": [
        {
          "internalType": "address",
          "name": "",
          "type": "address"
        },
        {
          "internalType": "address",
          "name": "",
          "type": "address"
        },
        {
          "internalType": "uint256",
          "name": "",
          "type": "uint256"
        }
      ],
      "name": "safeTransferFrom",
      "outputs": [],
      "stateMutability": "pure",
      "type": "function"
    },
    {
      "inputs": [
        {
          "internalType": "address",
          "name": "",
          "type": "address"
        },
        {
          "internalType": "address",
          "name": "",
          "type": "address"
        },
        {
          "internalType": "uint256",
          "name": "",
          "type": "uint256"
        },
        {
          "internalType": "bytes",
          "name": "",
          "type": "bytes"
        }
      ],
      "name": "safeTransferFrom",
      "outputs": [],
      "stateMutability": "pure",
      "type": "function"
    },
    {
      "inputs": [
        {
          "internalType": "address",
          "name": "",
          "type": "address"
        },
        {
          "internalType": "bool",
          "name": "",
          "type": "bool"
        }
      ],
      "name": "setApprovalForAll",
      "outputs": [],
      "stateMutability": "pure",
      "type": "function"
    },
    {
      "inputs": [
        {
          "internalType": "address",
          "name": "minter",
          "type": "address"
        }
      ],
      "name": "setAuthorizedMinter",
      "outputs": [],
      "stateMutability": "nonpayable",
      "type": "function"
    },
    {
      "inputs": [],
      "name": "symbol",
      "outputs": [
        {
          "internalType": "string",
          "name": "",
          "type": "string"
        }
      ],
      "stateMutability": "view",
      "type": "function"
    },
    {
      "inputs": [
        {
          "internalType": "address",
          "name": "account",
          "type": "address"
        }
      ],
      "name": "tokenIdOf",
      "outputs": [
        {
          "internalType": "uint256",
          "name": "",
          "type": "uint256"
        }
      ],
      "stateMutability": "view",
      "type": "function"
    },
    {
      "inputs": [
        {
          "internalType": "address",
          "name": "",
          "type": "address"
        },
        {
          "internalType": "address",
          "name": "",
          "type": "address"
        },
        {
          "internalType": "uint256",
          "name": "",
          "type": "uint256"
        }
      ],
      "name": "transferFrom",
      "outputs": [],
      "stateMutability": "pure",
      "type": "function"
    }
  ],
  "transactionHash": "0x10304b45c17b512289a532bf04eaa2fa6eaa0265281137addc9d0322fad72b90",
  "args": [],
  "numDeployments": 2,
  "solcInputHash": "e3c142b035fba0d7a87a1269c7997f92",
  "bytecode": "0x60c06040526009608090815268121bdb9bdc8813919560ba1b60a0525f906100279082610112565b506040805180820190915260058152642427a727a960d91b60208201526001906100519082610112565b506001600455348015610062575f5ffd5b50600280546001600160a01b031916331790556101cc565b634e487b7160e01b5f52604160045260245ffd5b600181811c908216806100a257607f821691505b6020821081036100c057634e487b7160e01b5f52602260045260245ffd5b50919050565b601f82111561010d57805f5260205f20601f840160051c810160208510156100eb5750805b601f840160051c820191505b8181101561010a575f81556001016100f7565b50505b505050565b81516001600160401b0381111561012b5761012b61007a565b61013f81610139845461008e565b846100c6565b6020601f821160018114610171575f831561015a5750848201515b5f19600385901b1c1916600184901b17845561010a565b5f84815260208120601f198516915b828110156101a05787850151825560209485019460019092019101610180565b50848210156101bd57868401515f19600387901b60f8161c191681555b50505050600190811b01905550565b6108a2806101d95f395ff3fe608060405234801561000f575f5ffd5b50600436106100fb575f3560e01c80636a6278421161009357806395d89b411161006357806395d89b4114610213578063a22cb4651461021b578063b88d4fde14610229578063e985e9c514610237575f5ffd5b80636a627842146101a457806370a08231146101c5578063773c02d4146101d85780638da5cb5b14610200575f5ffd5b80631ba538cd116100ce5780631ba538cd1461017057806323b872dd1461018357806342842e0e146101835780636352211e14610191575f5ffd5b806306fdde03146100ff578063081812fc1461011d578063095ea7b3146101485780631928b7c31461015d575b5f5ffd5b61010761025c565b6040516101149190610651565b60405180910390f35b61013061012b366004610686565b505f90565b6040516001600160a01b039091168152602001610114565b61015b6101563660046106b8565b6102e7565b005b61015b61016b3660046106e0565b610334565b600354610130906001600160a01b031681565b61015b610156366004610700565b61013061019f366004610686565b6103bd565b6101b76101b23660046106e0565b610427565b604051908152602001610114565b6101b76101d33660046106e0565b6105cf565b6101b76101e63660046106e0565b6001600160a01b03165f9081526006602052604090205490565b600254610130906001600160a01b031681565b610107610644565b61015b61015636600461073a565b61015b610156366004610773565b61024c610245366004610808565b5f92915050565b6040519015158152602001610114565b5f805461026890610839565b80601f016020809104026020016040519081016040528092919081815260200182805461029490610839565b80156102df5780601f106102b6576101008083540402835291602001916102df565b820191905f5260205f20905b8154815290600101906020018083116102c257829003601f168201915b505050505081565b60405162461bcd60e51b815260206004820152601060248201527f4e6f6e2d7472616e7366657261626c650000000000000000000000000000000060448201526064015b60405180910390fd5b6002546001600160a01b0316331461038e5760405162461bcd60e51b815260206004820152600a60248201527f4f6e6c79206f776e657200000000000000000000000000000000000000000000604482015260640161032b565b6003805473ffffffffffffffffffffffffffffffffffffffff19166001600160a01b0392909216919091179055565b5f818152600560205260408120546001600160a01b0316806104215760405162461bcd60e51b815260206004820152601160248201527f4e6f6e6578697374656e7420746f6b656e000000000000000000000000000000604482015260640161032b565b92915050565b6002545f906001600160a01b031633148061044c57506003546001600160a01b031633145b6104985760405162461bcd60e51b815260206004820152600e60248201527f4e6f7420617574686f72697a6564000000000000000000000000000000000000604482015260640161032b565b6001600160a01b0382166104dd5760405162461bcd60e51b815260206004820152600c60248201526b5a65726f206164647265737360a01b604482015260640161032b565b6001600160a01b0382165f90815260066020526040902054156105425760405162461bcd60e51b815260206004820152600e60248201527f416c7265616479206d696e746564000000000000000000000000000000000000604482015260640161032b565b60048054905f61055183610871565b909155505f818152600560209081526040808320805473ffffffffffffffffffffffffffffffffffffffff19166001600160a01b03881690811790915580845260069092528083208490555192935083929091907fddf252ad1be2c89b69c2b068fc378daa952ba7f163c4a11628f55a4df523b3ef908290a4919050565b5f6001600160a01b0382166106155760405162461bcd60e51b815260206004820152600c60248201526b5a65726f206164647265737360a01b604482015260640161032b565b6001600160a01b0382165f908152600660205260409020541561063957600161063b565b5f5b60ff1692915050565b6001805461026890610839565b602081525f82518060208401528060208501604085015e5f604082850101526040601f19601f83011684010191505092915050565b5f60208284031215610696575f5ffd5b5035919050565b80356001600160a01b03811681146106b3575f5ffd5b919050565b5f5f604083850312156106c9575f5ffd5b6106d28361069d565b946020939093013593505050565b5f602082840312156106f0575f5ffd5b6106f98261069d565b9392505050565b5f5f5f60608486031215610712575f5ffd5b61071b8461069d565b92506107296020850161069d565b929592945050506040919091013590565b5f5f6040838503121561074b575f5ffd5b6107548361069d565b915060208301358015158114610768575f5ffd5b809150509250929050565b5f5f5f5f5f60808688031215610787575f5ffd5b6107908661069d565b945061079e6020870161069d565b935060408601359250606086013567ffffffffffffffff8111156107c0575f5ffd5b8601601f810188136107d0575f5ffd5b803567ffffffffffffffff8111156107e6575f5ffd5b8860208284010111156107f7575f5ffd5b959894975092955050506020019190565b5f5f60408385031215610819575f5ffd5b6108228361069d565b91506108306020840161069d565b90509250929050565b600181811c9082168061084d57607f821691505b60208210810361086b57634e487b7160e01b5f52602260045260245ffd5b50919050565b5f6001820161088e57634e487b7160e01b5f52601160045260245ffd5b506001019056fea164736f6c634300081b000a",
  "devdoc": {
    "kind": "dev",
    "methods": {},
    "title": "HonorNFT - Non-transferable honor badge (simplified ERC721-like interface)",
    "version": 1
  },
  "userdoc": {
    "kind": "user",
    "methods": {
      "approve(address,uint256)": {
        "notice": "Non-transferable: all transfer/approval interfaces are disabled"
      },
      "balanceOf(address)": {
        "notice": "Return address balance (0 or 1)"
      },
      "mint(address)": {
        "notice": "Mint to target address (max 1 per address)"
      },
      "ownerOf(uint256)": {
        "notice": "Return tokenId owner"
      },
      "setAuthorizedMinter(address)": {
        "notice": "Set authorized minter (can be called by owner)"
      },
      "tokenIdOf(address)": {
        "notice": "Query tokenId for address (0 if not minted)"
      }
    },
    "notice": "Mints honor certificates for Top N students; supports common wallet query interfaces; transfers are disabled",
    "version": 1
  },
  "storageLayout": {
    "storage": [
      {
        "astId": 39031,
        "contract": "contracts/HonorNFT.sol:HonorNFT",
        "label": "name",
        "offset": 0,
        "slot": "0",
        "type": "t_string_storage"
      },
      {
        "astId": 39034,
        "contract": "contracts/HonorNFT.sol:HonorNFT",
        "label": "symbol",
        "offset": 0,
        "slot": "1",
        "type": "t_string_storage"
      },
      {
        "astId": 39036,
        "contract": "contracts/HonorNFT.sol:HonorNFT",
        "label": "owner",
        "offset": 0,
        "slot": "2",
        "type": "t_address"
      },
      {
        "astId": 39038,
        "contract": "contracts/HonorNFT.sol:HonorNFT",
        "label": "authorizedMinter",
        "offset": 0,
        "slot": "3",
        "type": "t_address"
      },
      {
        "astId": 39041,
        "contract": "contracts/HonorNFT.sol:HonorNFT",
        "label": "_nextTokenId",
        "offset": 0,
        "slot": "4",
        "type": "t_uint256"
      },
      {
        "astId": 39045,
        "contract": "contracts/HonorNFT.sol:HonorNFT",
        "label": "_owners",
        "offset": 0,
        "slot": "5",
        "type": "t_mapping(t_uint256,t_address)"
      },
      {
        "astId": 39049,
        "contract": "contracts/HonorNFT.sol:HonorNFT",
        "label": "_ownedToken",
        "offset": 0,
        "slot": "6",
        "type": "t_mapping(t_address,t_uint256)"
      }
    ],
    "types": {
      "t_address": {
        "encoding": "inplace",
        "label": "address",
        "numberOfBytes": "20"
      },
      "t_mapping(t_address,t_uint256)": {
        "encoding": "mapping",
        "key": "t_address",
        "label": "mapping(address => uint256)",
        "numberOfBytes": "32",
        "value": "t_uint256"
      },
      "t_mapping(t_uint256,t_address)": {
        "encoding": "mapping",
        "key": "t_uint256",
        "label": "mapping(uint256 => address)",
        "numberOfBytes": "32",
        "value": "t_address"
      },
      "t_string_storage": {
        "encoding": "bytes",
        "label": "string",
        "numberOfBytes": "32"
      },
      "t_uint256": {
        "encoding": "inplace",
        "label": "uint256",
        "numberOfBytes": "32"
      }
    }
  }
}